:100000000C9434000C9451000C9451000C94510049
:100010000C9451000C9451000C9451000C9451001C
:100020000C9451000C9451000C9451000C9451000C
:100030000C9451000C9451000C9451000C945100FC
:100040000C94E2000C9451000C9451000C9451005B
:100050000C9451000C9451000C9451000C945100DC
:100060000C9451000C94510011241FBECFEFD8E026
:10007000DEBFCDBF21E0A4E0B1E001C01D92A131FF
:10008000B207E1F711E0A0E0B1E0E6E2F3E102C07F
:1000900005900D92A430B107D9F70E942C010C9461
:1000A00091090C9400003FB7F89480910901909158
:1000B0000A01A0910B01B0910C0126B5A89B05C0C7
:1000C0002F3F19F00196A11DB11D3FBFBA2FA92FD7
:1000D000982F8827820F911DA11DB11DBC01CD0154
:1000E00042E0660F771F881F991F4A95D1F7089540
:1000F0008F929F92AF92BF92CF92DF92EF92FF9238
:100100006B017C010E9453004B015C01C114D104BE
:10011000E104F104F1F00E945300DC01CB018819E5
:100120009909AA09BB09883E9340A105B10570F35E
:1001300021E0C21AD108E108F10888EE880E83E0B8
:10014000981EA11CB11CC114D104E104F10419F7DB
:10015000DDCFFF90EF90DF90CF90BF90AF909F905A
:100160008F9008958FEF85B98FE388B98FE78BB9AA
:10017000089515B818B880E88BB90895CF93DF9328
:1001800000D000D0CDB7DEB76115710581059105AE
:1001900079F09B01AC0169833A834B835C830E94B5
:1001A000200929813A814B815C810E942E0903C07C
:1001B00060E070E0CB010F900F900F900F90DF91F7
:1001C000CF9108951F920F920FB60F9211242F9383
:1001D0003F938F939F93AF93BF938091050190912D
:1001E0000601A0910701B09108013091040123E0BC
:1001F000230F2D3720F40196A11DB11D05C026E85F
:10020000230F0296A11DB11D2093040180930501C7
:1002100090930601A0930701B09308018091090112
:1002200090910A01A0910B01B0910C010196A11DC2
:10023000B11D8093090190930A01A0930B01B09323
:100240000C01BF91AF919F918F913F912F910F9092
:100250000FBE0F901F901895CF93DF931F92CDB7CD
:10026000DEB7789484B5826084BD84B5816084BD36
:1002700085B5826085BD85B5816085BD80916E0044
:10028000816080936E001092810080918100826075
:1002900080938100809181008160809381008091B2
:1002A00080008160809380008091B10084608093A1
:1002B000B1008091B00081608093B00080917A009D
:1002C000846080937A0080917A00826080937A00C3
:1002D00080917A00816080937A0080917A008068B2
:1002E00080937A001092C1008FEF84B985B99FE3A3
:1002F00097B998B98AB98FE78BB966246394712C42
:1003000007E010E0EBE1EE2EE3E0FE2E73E0B72E07
:10031000C12CD12C95B193010C2C01C0220F0A9451
:10032000EAF7822F8095892385B96BE470E080E03D
:1003300090E00E9478004FEFC41AD40A58E0C51626
:10034000D10441F7C12CD12C98B193010C2C01C0E0
:10035000220F0A94EAF7822F8095892388B96BE4EB
:1003600070E080E090E00E9478008FEFC81AD80A11
:1003700046E0C416D10441F7C12CD12C9BB19301A6
:100380000C2C01C0220F0A94EAF7822F8095892352
:100390008BB96BE470E080E090E00E9478005FEF42
:1003A000C51AD50A87E0C816D10441F70E94B200E9
:1003B00066E970E080E090E00E9478000E94B90059
:1003C00066E970E080E090E00E9478000E94B20050
:1003D00066E970E080E090E00E9478000E94B90039
:1003E00066E970E080E090E00E9478000E94B20030
:1003F000BA94B1108DCF63E0962EC12CD12C85B16B
:1004000053010C2C01C0AA0C0A94EAF79A2D90957E
:10041000892385B96BE470E080E090E00E94780069
:1004200085B1A82AA5B84FEFC41AD40A58E0C5165A
:10043000D10429F7C12CD12C88B153010C2C01C057
:10044000AA0C0A94EAF79A2D9095892388B96BE44F
:1004500070E080E090E00E94780088B1A82AA8B8F7
:100460008FEFC81AD80A46E0C416D10429F7C12C68
:10047000D12C8BB153010C2C01C0AA0C0A94EAF7C1
:100480009A2D909589238BB96BE470E080E090E021
:100490000E9478008BB1A82AABB85FEFC51AD50AC5
:1004A00087E0C816D10429F79A949110A6CF53E09B
:1004B000D52E85B1811107C088B18F7321F48BB11E
:1004C0008F7709F4D0C085B1882309F43FC068E074
:1004D00070E080E090E00E94BE0085B19301062E9E
:1004E00002C0220F331F0A94E2F790E08223932385
:1004F0008217930739F1262F283080F485B190E0D8
:10050000A301022E02C0440F551F0A94E2F7842370
:10051000952384179507B1F02F5FEECF20E030E0F0
:100520002617A0F485B190E0A301022E02C0440F6B
:10053000551F0A94E2F7842395232F5F3F4F8417BA
:10054000950771F795B18095892385B988B18F7327
:1005500009F43FC066E070E080E090E00E94BE00D9
:1005600088B19301062E02C0220F331F0A94E2F7CE
:1005700090E0822393238217930739F1262F2830A6
:1005800080F488B190E0A301022E02C0440F551FF1
:100590000A94E2F78423952384179507B1F02F5F1F
:1005A000EECF20E030E02617A0F488B190E0A30160
:1005B000022E02C0440F551F0A94E2F784239523AC
:1005C0002F5F3F4F8417950771F798B18095892366
:1005D00088B98BB18F7709F43FC067E070E080E0A5
:1005E00090E00E94BE008BB19301062E02C0220F44
:1005F000331F0A94E2F790E0822393238217930734
:1006000039F1262F283080F48BB190E0A301022E1F
:1006100002C0440F551F0A94E2F7842395238417E0
:100620009507B1F02F5FEECF20E030E02617A0F461
:100630008BB190E0A301022E02C0440F551F0A9413
:10064000E2F7842395232F5F3F4F8417950771F7B7
:100650009BB1809589238BB966E970E080E090E0DA
:100660000E94780026CF68EE73E080E090E00E9460
:10067000780085B18F3F49F488B18F738F3329F4A7
:100680008BB18F778F3709F4CAC085B18F3FF1F1F5
:1006900068E070E080E090E00E94BE0025B1C301F8
:1006A000062E02C0880F991F0A94E2F730E0282333
:1006B00039232817390739F5462F483080F425B1FA
:1006C000C301042E02C0880F991F0A94E2F730E09C
:1006D0002823392328173907B1F44F5FEECF40E0C4
:1006E00050E0461798F425B1C301042E02C0880FCC
:1006F000991F0A94E2F74F5F5F4F30E028233923B8
:100700002817390771F395B1892B85B988B18F7393
:100710008F33F1F166E070E080E090E00E94BE006F
:1007200028B1C301062E02C0880F991F0A94E2F770
:1007300030E0282339232817390739F5462F483068
:1007400080F428B1C301042E02C0880F991F0A94B7
:10075000E2F730E02823392328173907B1F44F5F37
:10076000EECF40E050E0461798F428B1C301042EC4
:1007700002C0880F991F0A94E2F74F5F5F4F30E085
:10078000282339232817390771F398B1892B88B9A1
:100790008BB18F778F37F1F167E070E080E090E008
:1007A0000E94BE002BB1C301062E02C0880F991F04
:1007B0000A94E2F730E0282339232817390739F55E
:1007C000462F473080F42BB1C301042E02C0880F9E
:1007D000991F0A94E2F730E02823392328173907B4
:1007E000B1F44F5FEECF40E050E0461798F42BB1E4
:1007F000C301042E02C0880F991F0A94E2F74F5FCD
:100800005F4F30E0282339232817390771F39BB154
:10081000892B8BB966E970E080E090E028CF68EE24
:1008200073E080E090E00E947800DA94D11041CE2D
:1008300083E0D82E0E94B9006EEE72E080E090E076
:100840000E9478000E94B2006EEE72E080E090E0BC
:100850000E947800DA94D110EDCF43E0B42E2898AE
:100860006BE470E080E090E00E947800CC24C394B8
:10087000D12C95B193010C2C01C0220F0A94EAF7F8
:10088000822F8095892385B99BB198012C193D0948
:10089000A30102C0440F551F2A95E2F7842F8095CB
:1008A00089238BB96BE470E080E090E00E947800CF
:1008B0005FEFC51AD50A88E0C816D104D1F688B111
:1008C0008E7D88B96BE470E080E090E00E94780053
:1008D00088B18D7E88B96BE470E080E090E00E9482
:1008E000780088B1837F88B96BE470E080E090E0A5
:1008F0000E9478006EEE72E080E090E00E94780046
:1009000088B18C6088B96BE470E080E090E00E9470
:10091000780088B1826188B96BE470E080E090E093
:100920000E94780088B1816288B96BE470E080E051
:1009300090E00E947800C12CD12C25B1C8018C19FF
:100940009D09A30102C0440F551F8A95E2F7CA0111
:10095000822B85B92BB1C3010C2C01C0880F0A94DE
:10096000EAF7822B8BB96BE470E080E090E00E94A4
:1009700078005FEFC51AD50A87E0C816D104E9F6FA
:10098000289A6BE470E080E090E00E9478006EEEC0
:1009900072E080E090E00E947800BA94B1105FCFDE
:1009A00022E029830E94B90064E670E080E090E0D4
:1009B0000E9478000E94B20064E670E080E090E05F
:1009C0000E9478000E94B9006CE271E080E090E043
:1009D0000E9478000E94B20064E670E080E090E03F
:1009E0000E9478002981213011F021E0DACF68E5FA
:1009F00072E080E090E00E9478000E94B9006CE212
:100A000071E080E090E00E9478000E94B2006CE209
:100A100071E080E090E00E9478000E94B90064E6F6
:100A200070E080E090E00E9478000E94B2006CE2EA
:100A300071E080E090E00E9478000E94B9006CE2D2
:100A400071E080E090E00E9478000E94B20064E6CD
:100A500070E080E090E00E94780023E0D22E0E94B7
:100A6000B90064E670E080E090E00E9478000E94A7
:100A7000B20064E670E080E090E00E947800DA94D2
:100A8000D110EDCF68EC70E080E090E00E9478003B
:100A900022E029830E94B90064E670E080E090E0E3
:100AA0000E9478000E94B20064E670E080E090E06E
:100AB0000E9478000E94B9006CE271E080E090E052
:100AC0000E9478000E94B20064E670E080E090E04E
:100AD0000E9478002981213011F021E0DACF68E509
:100AE00072E080E090E00E9478000E94B90064E625
:100AF00070E080E090E00E9478000E94B20064E61E
:100B000070E080E090E00E9478000E94B9006CE202
:100B100071E080E090E00E9478000E94B20064E6FC
:100B200070E080E090E00E9478000E94B90064E6E6
:100B300070E080E090E00E9478000E94B20064E6DD
:100B400070E080E090E00E9478000E94B90064E6C6
:100B500070E080E090E00E9478000E94B20064E6BD
:100B600070E080E090E00E94780068EC70E080E047
:100B700090E00E9478000E94B90064E670E080E096
:100B800090E00E9478000E94B20064E670E080E08D
:100B900090E00E9478000E94B90064E670E080E076
:100BA00090E00E9478000E94B20064E670E080E06D
:100BB00090E00E9478000E94B9006CE271E080E051
:100BC00090E00E9478000E94B20064E670E080E04D
:100BD00090E00E9478000E94B9006CE271E080E031
:100BE00090E00E9478000E94B20064E670E080E02D
:100BF00090E00E94780068EC70E080E090E00E9455
:100C000078000E94B9006CE271E080E090E00E9400
:100C100078000E94B20064E670E080E090E00E94FC
:100C2000780093E0D92E0E94B90064E670E080E07D
:100C300090E00E9478000E94B20064E670E080E0DC
:100C400090E00E947800DA94D110EDCF68EC70E06B
:100C500080E090E00E9478000E94B90064E670E0B5
:100C600080E090E00E9478000E94B20064E670E0AC
:100C700080E090E00E9478000E94B9006CE271E090
:100C800080E090E00E9478000E94B20064E670E08C
:100C900080E090E00E9478000E94B90064E670E075
:100CA00080E090E00E9478000E94B20064E670E06C
:100CB00080E090E00E9478000E94B90064E670E055
:100CC00080E090E00E9478000E94B20064E670E04C
:100CD00080E090E00E94780068EC70E080E090E0B6
:100CE0000E9478000E94B90064E670E080E090E025
:100CF0000E9478000E94B20064E670E080E090E01C
:100D00000E9478000E94B90064E670E080E090E004
:100D10000E9478000E94B20064E670E080E090E0FB
:100D20000E9478000E94B9006CE271E080E090E0DF
:100D30000E9478000E94B20064E670E080E090E0DB
:100D40000E9478000E94B9006CE271E080E090E0BF
:100D50000E9478000E94B20064E670E080E090E0BB
:100D60000E94780068E572E080E090E00E947800E0
:100D700083E0C82E99249394B0E3AB2EB5E7BB2E45
:100D8000C7010197F1F7809110018F5F80931001E7
:100D9000D0900D018436B9F490910F0180910E012D
:100DA000911108C08F5F80930E018D110AC090923F
:100DB0000F0107C0815080930E01811102C0109273
:100DC0000F011092100180910E01D81618F40E94A4
:100DD000B90002C00E94B20081E08D0D843619F086
:100DE00080930D0102C010920D0141E0A41AB108D8
:100DF00039F6CA94C110C0CFA3E0DA2E0E94B20027
:100E000085B1847585B988B18D7E88B98BB18A7AB0
:100E10008BB96CE271E080E090E00E9478000E9463
:100E2000B20085B18A7A85B988B1827D88B98BB1E3
:100E3000857D8BB96CE271E080E090E00E947800E3
:100E4000DA94D110DBCFF3E0DF2E0E94B20015B8A8
:100E500088B1887F88B96CE271E080E090E00E9400
:100E600078000E94B200289888B1877C88B91BB8A6
:100E70006CE271E080E090E00E947800DA94D1109A
:100E8000E4CFE3E0BE2E2898CC24C394D12C95B1B6
:100E900093010C2C01C0220F0A94EAF7822F80954F
:100EA000892385B954E0C516D10468F428B1C60178
:100EB0000296A30102C0440F551F8A95E2F7CA01AA
:100EC000822B88B90CC02BB1C6010497A30102C0C4
:100ED000440F551F8A95E2F7CA01822B8BB966E948
:100EE00070E080E090E00E9478005FEFC51AD50ABC
:100EF00088E0C816D10459F6C12CD12C98B19301C1
:100F00000C2C01C0220F0A94EAF7822F80958923C6
:100F100088B92BB1C6010496A30102C0440F551F26
:100F20008A95E2F7CA01822B8BB966E970E080E00E
:100F300090E00E9478005FEFC51AD50A83E0C816DA
:100F4000D104E1F666E0C62ED12C9BB193010C2CA6
:100F500001C0220F0A94EAF7822F809589238BB96A
:100F600081E08C0D853068F028B1C6010497A3019B
:100F700002C0440F551F8A95E2F7CA01822B88B937
:100F80000CC025B1C6010496A30102C0440F551F31
:100F90008A95E2F7CA01822B85B966E970E080E0A4
:100FA00090E00E94780051E0C51AD10870F655E033
:100FB000C52ED12C98B193010C2C01C0220F0A949C
:100FC000EAF7822F8095892388B925B1C601029757
:100FD000A30102C0440F551F8A95E2F7CA01822B74
:100FE00085B966E970E080E090E00E94780051E009
:100FF000C51AD10882E0C816D104E1F6BA94B1103E
:1010000042CF43E0B42E289836E0C32ED12C9BB1BA
:1010100093010C2C01C0220F0A94EAF7822F8095CD
:1010200089238BB981E08C0D853078F098B19601D9
:1010300024503109A30102C0440F551F2A95E2F73D
:10104000842F8095892388B90EC095B196012C5FB5
:101050003F4FA30102C0440F551F2A95E2F7842F8A
:101060008095892385B966E970E080E090E00E9470
:10107000780051E0C51AD10850F625E0C22ED12CD7
:1010800098B193010C2C01C0220F0A94EAF7822F29
:101090008095892388B995B1960122503109A30121
:1010A00002C0440F551F2A95E2F7842F80958923AB
:1010B00085B966E970E080E090E00E94780051E038
:1010C000C51AD10882E0C816D104D1F6CC24C39445
:1010D000D12C25B1C3010C2C01C0880F0A94EAF76A
:1010E000822B85B944E0C416D10468F428B1C60146
:1010F0000296A30102C0440F551F8A95E2F7CA0168
:10110000822B88B90CC02BB1C6010497A30102C081
:10111000440F551F8A95E2F7CA01822B8BB966E905
:1011200070E080E090E00E9478005FEFC51AD50A79
:1011300088E0C816D10469F6C12CD12C28B1C301AE
:101140000C2C01C0880F0A94EAF7822B88B92BB1C6
:10115000C6010496A30102C0440F551F8A95E2F709
:10116000CA01822B8BB966E970E080E090E00E94B2
:1011700078005FEFC51AD50A83E0C816D104F1F6EE
:10118000289A66E970E080E090E00E947800BA94C6
:10119000B11039CF80E090E0892B09F4B7C80E94E4
:1011A0000000B0C88F929F92AF92BF92CF92DF9211
:1011B000EF92FF92CF93DF93EC01688179818A816E
:1011C0009B81611571058105910521F464E279ED3A
:1011D0008BE597E02DE133EF41E050E00E942E09CE
:1011E00049015A019B01AC01A7EAB1E40E944D09F3
:1011F0006B017C01ACEEB4EFA50194010E945B0988
:10120000DC01CB018C0D9D1DAE1DBF1DB7FF03C0C2
:101210000197A109B04888839983AA83BB83BC0145
:10122000CD019F77DF91CF91FF90EF90DF90CF902E
:10123000BF90AF909F908F9008950E94D20808951C
:1012400080E091E00E94D2080895609300017093BD
:10125000010180930201909303010895052E97FBED
:101260001EF400940E94450957FD07D00E946009B2
:1012700007FC03D04EF40C944509509540953095E9
:1012800021953F4F4F4F5F4F0895909580957095F2
:1012900061957F4F8F4F9F4F08950E948209A59FB0
:1012A000900DB49F900DA49F800D911D1124089561
:1012B000B7FF0C944D090E944D09821B930B0895B2
:1012C000A1E21A2EAA1BBB1BFD010DC0AA1FBB1F4A
:1012D000EE1FFF1FA217B307E407F50720F0A21BBC
:1012E000B30BE40BF50B661F771F881F991F1A9429
:1012F00069F760957095809590959B01AC01BD0153
:10130000CF010895A29FB001B39FC001A39F700DAC
:10131000811D1124911DB29F700D811D1124911DFD
:061320000895F894FFCFD0
:0413260001000000C2
:00000001FF
